:020000040800F2
:1000000000500020DD0D00083D0D0008450D0008E2
:100010004D0D0008550D00085D0D000800000000A2
:10002000000000000000000000000000650D000856
:10003000710D0008000000007D0D0008890D00080A
:10004000250E0008250E0008250E0008250E0008C4
:10005000250E0008250E0008250E0008250E0008B4
:10006000250E0008250E0008250E0008250E0008A4
:10007000250E0008250E0008250E0008250E000894
:10008000250E0008250E0008250E0008250E000884
:10009000250E0008250E0008250E0008250E000874
:1000A000250E0008250E0008250E0008250E000864
:1000B000950D0008A90D0008BD0D0008250E0008CB
:1000C000250E0008250E0008250E0008250E000844
:1000D000250E0008250E0008250E0008250E000834
:1000E000250E0008250E0008250E0008000000005F
:1000F0000000000000000000000000000000000000
:0C01000000000000000000005FF808F1A3
:10010C0010B5054C237833B9044B13B10448AFF345
:10011C0000800123237010BD0C00002000000000A3
:10012C008C31000808B5034B1BB103490348AFF3EE
:10013C00008008BD00000000100000208C31000879
:10014C0080B483B000AF78607B681B68B3F1804FDC
:10015C0004D1054B1B680133034A136000BF0C37F5
:10016C00BD4680BC704700BF4801002080B584B0FC
:10017C0000AF78607B681B682E4A934256D12E4B99
:10018C001B68002B1BD10021786802F03FFB034653
:10019C001A462A4B1A607B681B681A6A7B681B68B4
:1001AC0022F00A021A627B681B681A6A7B681B6859
:1001BC0042F002021A62204B01221A6036E0002142
:1001CC00786802F023FB03461A461D4B1A601C4B41
:1001DC001A681A4B1B689A4206DB194B1A68174BA4
:1001EC001B68D31AFB6008E0144B1B68C3F57F43F4
:1001FC00FF33134A12681344FB60FB68114AA2FBDD
:10020C0003235B091A46104B1A607B681B681A6A39
:10021C007B681B6822F00A021A627B681A687B688A
:10022C001B68126A1A62044B00221A6000BF103756
:10023C00BD4680BD00080040540100204C01002048
:10024C005001002009CB3D8D5801002080B483B0B3
:10025C0000AF0346FB80084B1B6800225A6200BFAC
:10026C00054B1B685A6AFB889A42F9D300BF00BF42
:10027C000C37BD4680BC70470001002080B500AF34
:10028C0001222021064801F0BDF80A20FFF7DEFF0D
:10029C0000222021024801F0B5F800BF80BD00BF4C
:1002AC00000C014080B483B000AF78607B68054AD5
:1002BC0082FB03129211DB17D31A18460C37BD467A
:1002CC0080BC7047D34D621080B483B000AF7860AF
:1002DC0039607A683B68D31A054A82FB03125211C3
:1002EC00DB17D31A18460C37BD4680BC704700BFCD
:1002FC001F85EB5180B485B000AFF860B9607A60AF
:10030C00BA687B681344FA68D31A054A82FB031255
:10031C009210DB17D31A18461437BD4680BC7047B1
:10032C006766666680B485B000AFF860B9607A60C5
:10033C003B60BA687B681A443B681344FA68D31A6A
:10034C0018461437BD4680BC7047000080B586B097
:10035C0000AF07F1080300221A605A609A60DA6055
:10036C00134B9B69124A43F008039361104B9B6932
:10037C0003F008037B607B680D4B9B690C4A43F0D0
:10038C00010393610A4B9B6903F001033B603B68DB
:10039C001023BB600223FB6003237B6107F108037E
:1003AC001946044800F0AAFE00BF1837BD4680BDB0
:1003BC0000100240000C0140B0B594B000AF00F04A
:1003CC002DFD7F4B3C1D1D460FCD0FC40FCD0FC413
:1003DC0095E8030084E803000023BB640023FB645E
:1003EC0000237B6400233B640023FB630023BB637B
:1003FC0000237B6300233B6300F0F6F800F0C2FAA5
:10040C0000F038F900F08CF900F04CFA00F0D4F957
:10041C006C4B5B68FB62FB6A23F44063FB62FB6A18
:10042C0043F0E063FB62FB6A43F40063FB62654AE2
:10043C00FB6A5360644801F02BFC0021634801F017
:10044C00C3FD0021624801F0CDFCFFF77FFF614B3B
:10045C004FF4FA725A635F4B4FF4FA725A635E4B65
:10046C001B68012BF7D15D4B1B687B64786CFFF725
:10047C0019FF78637B6B4FF47A7202FB03F3194616
:10048C00786CFFF721FFB8637B6B4FF47A7202FB39
:10049C0003F1BB6B642202FB03F31A46786CFFF783
:1004AC0029FFF8637B6B4FF47A7202FB03F1BB6B91
:1004BC00642202FB03F0FA6B13469B0013445B00AF
:1004CC000246786CFFF72EFF3864454BDB68444AD4
:1004DC0023F07F03D360FB6C032B63D801A252F88B
:1004EC0023F000BF010500082D0500085905000880
:1004FC00850500083A4BDB6823F07F027B6B9B0081
:10050C0050333B4453F84C3C35491343CB60354B8B
:10051C00DB6823F00F03334A43F00103D36041E05F
:10052C002F4BDB6823F07F02BB6B9B0050333B44AB
:10053C0053F84C3C2A491343CB602A4BDB6823F01D
:10054C000F03284A43F00203D3602BE0244BDB68F3
:10055C0023F07F02FB6B9B0050333B4453F84C3C25
:10056C001F491343CB601F4BDB6823F00F031D4A5D
:10057C0043F00403D36015E0194BDB6823F07F02D2
:10058C003B6C9B0050333B4453F84C3C1449134395
:10059C00CB60144BDB6823F00F03124A43F00803C3
:1005AC00D36000BFFB6C0133FB64FB6C032B03DDDE
:1005BC000023FB64FFF762FE074B00221A604AE738
:1005CC00A431000800000140700000200001002050
:1005DC00B800002000040040480100205801002011
:1005EC0000080140000C014080B590B000AF07F14D
:1005FC00180328220021184602F096FD3B1D00220C
:10060C001A605A609A60DA601A610123BB614FF478
:10061C008033FB6100233B620123BB6202237B63BB
:10062C004FF48033BB634FF4E013FB6307F1180303
:10063C00184600F0FFFE0346002B01D000F032FA02
:10064C000F237B600223BB600023FB604FF48063AD
:10065C003B6100237B613B1D0221184601F06CF9C4
:10066C000346002B01D000F01DFA00BF4037BD46F9
:10067C0080BD000080B586B000AF07F110030022EA
:10068C001A605A603B4600221A605A609A60DA601F
:10069C00214B224A1A60204B00225A601E4B00222A
:1006AC009A601D4B4FF6FF72DA601B4B00221A61E9
:1006BC00194B00225A61184B00229A61164801F01E
:1006CC0033FC0346002B01D000F0ECF900233B6116
:1006DC0000237B6107F1100319460F4802F0B4FCAC
:1006EC000346002B01D000F0DDF900233B60012311
:1006FC007B600023BB600023FB603B460022194655
:10070C00054801F05DFE0346002B01D000F0CAF94C
:10071C0000BF1837BD4680BD28000020002C0140CA
:10072C0080B586B000AF07F1080300221A605A604A
:10073C009A60DA603B4600221A605A601D4B4FF0FB
:10074C0080421A601B4B47225A601A4B00229A6057
:10075C00184B42F21072DA60164B00221A61154BDC
:10076C0000229A61134801F043FA0346002B01D092
:10077C0000F098F94FF48053BB6007F10803194659
:10078C000C4801F07BFF0346002B01D000F08AF9E6
:10079C0000233B6000237B603B461946054802F072
:1007AC0053FC0346002B01D000F07CF900BF183736
:1007BC00BD4680BD7000002080B58EB000AF07F143
:1007CC00280300221A605A609A60DA6007F120034D
:1007DC0000221A605A603B1D00221A605A609A600F
:1007EC00DA601A615A619A612C4B2D4A1A602B4BB4
:1007FC0047225A60294B00229A60284B40F2E7327C
:10080C00DA60264B00221A61244B00229A6123489D
:10081C0001F0EEF90346002B01D000F043F94FF440
:10082C008053BB6207F1280319461C4801F026FFD0
:10083C000346002B01D000F035F9184801F07AFA84
:10084C000346002B01D000F02DF900233B6200235E
:10085C007B6207F120031946104802F0F5FB0346B2
:10086C00002B01D000F01EF960237B600023BB60DD
:10087C000023FB6000237B613B1D002219460748C7
:10088C0001F03AFE0346002B01D000F00BF90348AF
:10089C0000F0FCF900BF3837BD4680BDB800002021
:1008AC000004004080B58AB000AF07F118030022A5
:1008BC001A605A609A60DA6007F1100300221A601D
:1008CC005A603B4600221A605A609A60DA602B4BE1
:1008DC002B4A1A60294B00225A60284B00229A603E
:1008EC00264B4FF6FF72DA60244B00221A61234B21
:1008FC0000229A61214801F07BF90346002B01D0BC
:10090C0000F0D0F84FF48053BB6107F1180319467F
:10091C001A4801F0B3FE0346002B01D000F0C2F8D8
:10092C00164801F001FB0346002B01D000F0BAF889
:10093C0000233B6100237B6107F1100319460F482C
:10094C0002F082FB0346002B01D000F0ABF8002331
:10095C003B6001237B600023BB600023FB603B46B4
:10096C0000221946054801F02BFD0346002B01D04F
:10097C0000F098F800BF2837BD4680BD000100206C
:10098C000008004080B588B000AF07F110030022CA
:10099C001A605A609A60DA603E4B9B693D4A43F09C
:1009AC00100393613B4B9B6903F01003FB60FB68E6
:1009BC00384B9B69374A43F020039361354B9B6955
:1009CC0003F02003BB60BB68324B9B69314A43F098
:1009DC00040393612F4B9B6903F004037B607B68DA
:1009EC002C4B9B692B4A43F008039361294B9B6961
:1009FC0003F008033B603B6800224FF4005126488B
:100A0C0000F000FD002247F6FF61244800F0FAFCDC
:100A1C0000222F21224800F0F5FC4FF400533B61DB
:100A2C0001237B610023BB610223FB6107F11003EF
:100A3C001946194800F062FB47F6FF633B6101233E
:100A4C007B610023BB610223FB6107F11003194694
:100A5C00124800F053FB2F233B6101237B610023E1
:100A6C00BB610223FB6107F1100319460C4800F02F
:100A7C0045FB4FF400433B6100237B610023BB61CA
:100A8C0007F110031946064800F038FB00BF203769
:100A9C00BD4680BD0010024000100140000801401E
:100AAC00000C014080B400AF72B600BF00BFFDE780
:100ABC0080B485B000AF154B9B69144A43F0010319
:100ACC009361124B9B6903F00103BB60BB680F4B36
:100ADC00DB690E4A43F08053D3610C4BDB6903F0A6
:100AEC0080537B607B680A4B5B68FB60FB6823F080
:100AFC00E063FB60FB6843F08063FB60044AFB68C7
:100B0C00536000BF1437BD4680BC704700100240D4
:100B1C000000014080B588B000AF786007F1100389
:100B2C0000221A605A609A60DA607B681B68164A69
:100B3C00934224D1154B9B69144A43F4006393618F
:100B4C00124B9B6903F40063FB60FB680F4B9B69C2
:100B5C000E4A43F0040393610C4B9B6903F00403AE
:100B6C00BB60BB684FF480733B6100237B61002347
:100B7C00BB6107F110031946054800F0BFFA00BF2E
:100B8C002037BD4680BD00BF002C01400010024044
:100B9C000008014080B58AB000AF786007F11803F7
:100BAC0000221A605A609A60DA607B681B68B3F1A5
:100BBC00804F14D1314BDB69304A43F00103D361D0
:100BCC002E4BDB6903F001037B617B690022002162
:100BDC001C2000F05CFA1C2000F075FA4AE07B68DF
:100BEC001B68274A934214D1244BDB69234A43F0F8
:100BFC000203D361214BDB6903F002033B613B69C8
:100C0C00002200211D2000F042FA1D2000F05BFAAA
:100C1C0030E07B681B681B4A93422BD1174BDB6976
:100C2C00164A43F00403D361144BDB6903F004034D
:100C3C00FB60FB68114B9B69104A43F008039361FE
:100C4C000E4B9B6903F00803BB60BB684023BB6180
:100C5C000023FB6100233B6207F1180319460A4885
:100C6C0000F04CFA002200211E2000F010FA1E2089
:100C7C0000F029FA00BF2837BD4680BD00100240A5
:100C8C000004004000080040000C014080B58AB010
:100C9C0000AF786007F1140300221A605A609A6062
:100CAC00DA607B681B681E4A934235D11D4B9B69E9
:100CBC001C4A43F0080393611A4B9B6903F0080329
:100CCC003B613B69174B9B69164A43F001039361E7
:100CDC00144B9B6903F00103FB60FB68124B5B68D0
:100CEC007B627B6A23F440637B627B6A43F0E06344
:100CFC007B627B6A43F400637B620B4A7B6A5360C2
:100D0C0010237B610223BB6103233B6207F11403B5
:100D1C001946064800F0F2F900BF2837BD4680BDE1
:100D2C00000400400010024000000140000C014093
:100D3C0080B400AF00BFFDE780B400AF00BFFDE79B
:100D4C0080B400AF00BFFDE780B400AF00BFFDE78B
:100D5C0080B400AF00BFFDE780B400AF00BFBD465C
:100D6C0080BC704780B400AF00BFBD4680BC7047EC
:100D7C0080B400AF00BFBD4680BC704780B500AFEB
:100D8C0000F092F800BF80BD80B500AF024801F0C2
:100D9C0027FA00BF80BD00BF7000002080B500AFF7
:100DAC00024801F01DFA00BF80BD00BFB800002052
:100DBC0080B500AF024801F013FA00BF80BD00BF40
:100DCC000001002080B400AF00BFBD4680BC70475E
:100DDC00FFF7F8FF0B480C490C4A002302E0D458EB
:100DEC00C4500433C4188C42F9D3094A094C00236B
:100DFC0001E013600432A242FBD302F09DF9FFF72D
:100E0C00DBFA7047000000200C000020F8310008CD
:100E1C000C00002060010020FEE7000080B500AF50
:100E2C00084B1B68074A43F010031360032000F0C3
:100E3C0023F90F2000F008F8FFF73AFE00231846BC
:100E4C0080BD00BF0020024080B582B000AF78604A
:100E5C00124B1A68124B1B7819464FF47A73B3FB7A
:100E6C00F1F3B2FBF3F3184600F03BF90346002B09
:100E7C0001D001230EE07B680F2B0AD80022796881
:100E8C004FF0FF3000F003F9064A7B681360002333
:100E9C0000E0012318460837BD4680BD0000002045
:100EAC00080000200400002080B400AF054B1B7824
:100EBC001A46054B1B681344034A136000BFBD461A
:100ECC0080BC7047080000205C01002080B400AF9B
:100EDC00024B1B681846BD4680BC70475C01002065
:100EEC0080B485B000AF78607B6803F00703FB60CB
:100EFC000C4BDB68BB60BA684FF6FF031340BB605A
:100F0C00FB681A02BB68134343F0BF6343F400331E
:100F1C00BB60044ABB68D36000BF1437BD4680BCBD
:100F2C00704700BF00ED00E080B400AF044BDB68FD
:100F3C001B0A03F007031846BD4680BC704700BF70
:100F4C0000ED00E080B483B000AF0346FB7197F96D
:100F5C000730002B0BDBFB7903F01F02064997F9D6
:100F6C0007305B09012000FA02F241F8232000BF90
:100F7C000C37BD4680BC704700E100E080B483B004
:100F8C0000AF03463960FB7197F90730002B0ADB81
:100F9C003B68DAB20C4997F907301201D2B20B4414
:100FAC0083F800230AE03B68DAB20849FB7903F0C6
:100FBC000F03043B1201D2B20B441A7600BF0C375C
:100FCC00BD4680BC704700BF00E100E000ED00E0D2
:100FDC0080B489B000AFF860B9607A60FB6803F048
:100FEC000703FB61FB69C3F10703042B28BF042330
:100FFC00BB61FB690433062B02D9FB69033B00E0A0
:10100C0000237B614FF0FF32BB6902FA03F3DA4332
:10101C00BB681A407B699A404FF0FF317B6901FA3B
:10102C0003F3D9437B680B40134318462437BD4662
:10103C0080BC704780B582B000AF78607B68013BA4
:10104C00B3F1807F01D301230FE00A4A7B68013B97
:10105C0053600F214FF0FF30FFF790FF054B00223C
:10106C009A60044B07221A60002318460837BD46C5
:10107C0080BD00BF10E000E080B582B000AF7860AA
:10108C007868FFF72DFF00BF0837BD4680BD80B5DF
:10109C0086B000AF0346B9607A60FB7300237B61B6
:1010AC00FFF742FF78617A68B9687869FFF790FFBB
:1010BC00024697F90F3011461846FFF75FFF00BF45
:1010CC001837BD4680BD80B582B000AF0346FB71BA
:1010DC0097F907301846FFF735FF00BF0837BD46B4
:1010EC0080BD80B582B000AF78607868FFF7A2FF52
:1010FC00034618460837BD4680BD000080B48BB04F
:10110C0000AF7860396000237B6200233B6269E1A9
:10111C0001227B6A02FA03F3FB613B681B68FA69E4
:10112C001340BB61BA69FB699A4240F058813B6835
:10113C005B689A4A93425ED0984A934275D8984A13
:10114C00934258D0964A93426FD8964A934252D0C3
:10115C00944A934269D8944A93424CD0924A93420F
:10116C0063D8924A934246D0904A93425DD8122B50
:10117C002AD8122B59D801A252F823F003120008D6
:10118C00DD110008EF1100083112000837120008B9
:10119C0037120008371200083712000837120008FF
:1011AC0037120008371200083712000837120008EF
:1011BC0037120008371200083712000837120008DF
:1011CC00E5110008F9110008794A934213D02CE07C
:1011DC003B68DB683B6229E03B68DB6804333B62BD
:1011EC0024E03B68DB6808333B621FE03B68DB684C
:1011FC000C333B621AE03B689B68002B02D1042342
:10120C003B6213E03B689B68012B05D108233B62D2
:10121C007B68FA691A6109E008233B627B68FA690A
:10122C005A6103E000233B6200E000BFBB69FF2B67
:10123C0001D87B6801E07B6804337B61BB69FF2BC1
:10124C0002D87B6A9B0002E07B6A083B9B003B61F7
:10125C007B691A680F213B6901FA03F3DB431A40DF
:10126C00396A3B6901FA03F31A437B691A603B68DC
:10127C005B6803F08053002B00F0B1804D4B9B69F1
:10128C004C4A43F0010393614A4B9B6903F0010301
:10129C00BB60BB68484A7B6A9B08023352F8233018
:1012AC00FB607B6A03F003039B000F2202FA03F33B
:1012BC00DB43FA681340FB607B68404A934213D0CF
:1012CC007B683F4A93420DD07B683E4A934207D0DD
:1012DC007B683D4A934201D1032306E0042304E0DA
:1012EC00022302E0012300E000237A6A02F00302E9
:1012FC0092009340FA681343FB602F497B6A9B086A
:10130C000233FA6841F823203B685B6803F48013CE
:10131C00002B06D02D4B9A682C49BB6913438B606C
:10132C0006E02A4B9A68BB69DB43284913408B6063
:10133C003B685B6803F40013002B06D0234BDA6880
:10134C002249BB691343CB6006E0204BDA68BB69CA
:10135C00DB431E491340CB603B685B6803F40033EE
:10136C00002B06D0194B5A681849BB6913434B60C4
:10137C0006E0164B5A68BB69DB43144913404B60BB
:10138C003B685B6803F48033002B21D00F4B1A6849
:10139C000E49BB6913430B6021E000BF0000321003
:1013AC00000031100000221000002110000012106B
:1013BC000000111000100240000001400008014024
:1013CC00000C0140001001400014014000040140D9
:1013DC000B4B1A68BB69DB43094913400B607B6AF2
:1013EC0001337B623B681A687B6A22FA03F3002B99
:1013FC007FF48EAE00BF00BF2C37BD4680BC70475B
:10140C000004014080B483B000AF78600B467B8051
:10141C0013467B707B78002B03D07A887B681A612B
:10142C0003E07B881A047B681A6100BF0C37BD4649
:10143C0080BC704780B586B000AF78607B68002BAD
:10144C0001D1012372E27B681B6803F00103002BBE
:10145C0000F08780924B5B6803F00C03042B0CD0DC
:10146C008F4B5B6803F00C03082B12D18C4B5B6821
:10147C0003F48033B3F5803F0BD1894B1B6803F425
:10148C000033002B6CD07B685B68002B68D1012388
:10149C004CE27B685B68B3F5803F06D1804B1B68E0
:1014AC007F4A43F4803313602EE07B685B68002B2B
:1014BC000CD17B4B1B687A4A23F480331360784B36
:1014CC001B68774A23F4802313601DE07B685B68FC
:1014DC00B3F5A02F0CD1724B1B68714A43F48023D7
:1014EC0013606F4B1B686E4A43F4803313600BE040
:1014FC006B4B1B686A4A23F480331360684B1B6880
:10150C00674A23F4802313607B685B68002B13D03D
:10151C00FFF7DCFC386108E0FFF7D8FC02463B69BA
:10152C00D31A642B01D9032300E25D4B1B6803F42F
:10153C000033002BF0D014E0FFF7C8FC386108E052
:10154C00FFF7C4FC02463B69D31A642B01D9032371
:10155C00ECE1534B1B6803F40033002BF0D100E09B
:10156C0000BF7B681B6803F00203002B63D04C4B5D
:10157C005B6803F00C03002B0BD0494B5B6803F04A
:10158C000C03082B1CD1464B5B6803F48033002BF7
:10159C0016D1434B1B6803F00203002B05D07B686C
:1015AC001B69012B01D00123C0E13D4B1B6823F0CB
:1015BC00F8027B685B69DB00394913430B603AE046
:1015CC007B681B69002B20D0364B01221A60FFF779
:1015DC007DFC386108E0FFF779FC02463B69D31AC1
:1015EC00022B01D90323A1E12D4B1B6803F002034D
:1015FC00002BF0D02A4B1B6823F0F8027B685B6948
:10160C00DB00274913430B6015E0264B00221A60C0
:10161C00FFF75CFC386108E0FFF758FC02463B69B9
:10162C00D31A022B01D9032380E11D4B1B6803F055
:10163C000203002BF0D17B681B6803F00803002B1E
:10164C003AD07B689B69002B19D0174B01221A608A
:10165C00FFF73CFC386108E0FFF738FC02463B69B9
:10166C00D31A022B01D9032360E10D4B5B6A03F003
:10167C000203002BF0D0012000F09CFA1CE00A4B76
:10168C0000221A60FFF722FC38610FE0FFF71EFC06
:10169C0002463B69D31A022B08D9032346E100BF4B
:1016AC00001002400000424280044242924B5B6AAE
:1016BC0003F00203002BE9D17B681B6803F00403E1
:1016CC00002B00F0A6800023FB758B4BDB6903F02D
:1016DC008053002B0DD1884BDB69874A43F0805334
:1016EC00D361854BDB6903F08053BB60BB6801237E
:1016FC00FB75824B1B6803F48073002B18D17F4B56
:10170C001B687E4A43F480731360FFF7DFFB38617C
:10171C0008E0FFF7DBFB02463B69D31A642B01D9C7
:10172C00032303E1754B1B6803F48073002BF0D08B
:10173C007B68DB68012B06D16F4B1B6A6E4A43F04A
:10174C00010313622DE07B68DB68002B0CD16A4B24
:10175C001B6A694A23F001031362674B1B6A664AD2
:10176C0023F0040313621CE07B68DB68052B0CD1AF
:10177C00614B1B6A604A43F0040313625E4B1B6AA5
:10178C005D4A43F0010313620BE05B4B1B6A5A4A40
:10179C0023F001031362584B1B6A574A23F00403CE
:1017AC0013627B68DB68002B15D0FFF78FFB386169
:1017BC000AE0FFF78BFB02463B69D31A41F28832F1
:1017CC00934201D90323B1E04B4B1B6A03F0020394
:1017DC00002BEED014E0FFF779FB38610AE0FFF73D
:1017EC0075FB02463B69D31A41F28832934201D908
:1017FC0003239BE0404B1B6A03F00203002BEED14A
:10180C00FB7D012B05D13C4BDB693B4A23F080531C
:10181C00D3617B68DB69002B00F08780364B5B68FB
:10182C0003F00C03082B61D07B68DB69022B46D1DB
:10183C00334B00221A60FFF749FB386108E0FFF7D1
:10184C0045FB02463B69D31A022B01D903236DE0F9
:10185C00294B1B6803F00073002BF0D17B681B6ACB
:10186C00B3F5803F08D1244B5B6823F400327B68CE
:10187C009B68214913434B601F4B5B6823F4741224
:10188C007B68196A7B685B6A0B431B4913434B608B
:10189C001B4B01221A60FFF719FB386108E0FFF7B8
:1018AC0015FB02463B69D31A022B01D903233DE0F9
:1018BC00114B1B6803F00073002BF0D035E0104B7C
:1018CC0000221A60FFF702FB386108E0FFF7FEFA0E
:1018DC0002463B69D31A022B01D9032326E0064B9F
:1018EC001B6803F00073002BF0D11EE07B68DB69F2
:1018FC00012B07D1012319E00010024000700040B9
:10190C00600042420B4B5B68FB60FB6803F4803267
:10191C007B681B6A9A4206D1FB6803F470127B68E1
:10192C005B6A9A4201D0012300E000231846183765
:10193C00BD4680BD0010024080B584B000AF786019
:10194C0039607B68002B01D10123D0E06A4B1B6806
:10195C0003F007033A689A4210D9674B1B6823F0CF
:10196C00070265493B6813430B60634B1B6803F02C
:10197C0007033A689A4201D00123B8E07B681B68E0
:10198C0003F00203002B20D07B681B6803F00403D8
:10199C00002B05D0594B5B68584A43F4E063536005
:1019AC007B681B6803F00803002B05D0534B5B6866
:1019BC00524A43F460535360504B5B6823F0F0027F
:1019CC007B689B684D4913434B607B681B6803F035
:1019DC000103002B40D07B685B68012B07D1474B80
:1019EC001B6803F40033002B15D101237FE07B68C7
:1019FC005B68022B07D1414B1B6803F00073002B73
:101A0C0009D1012373E03D4B1B6803F00203002B4B
:101A1C0001D101236BE0394B5B6823F003027B6837
:101A2C005B68364913434B60FFF750FAF8600AE0E5
:101A3C00FFF74CFA0246FB68D31A41F28832934204
:101A4C0001D9032353E02D4B5B6803F00C027B6838
:101A5C005B689B009A42EBD1274B1B6803F0070392
:101A6C003A689A4210D2244B1B6823F00702224991
:101A7C003B6813430B60204B1B6803F007033A6869
:101A8C009A4201D0012332E07B681B6803F0040307
:101A9C00002B08D0194B5B6823F4E0627B68DB6891
:101AAC00164913434B607B681B6803F00803002B3B
:101ABC0009D0124B5B6823F460527B681B69DB0016
:101ACC000E4913434B6000F021F802460B4B5B6848
:101ADC001B0903F00F030A49CB5C22FA03F3094AF2
:101AEC001360094B1B681846FFF7AEF90023184624
:101AFC001037BD4680BD00BF0020024000100240E0
:101B0C00CC310008000000200400002080B487B015
:101B1C0000AF0023FB600023BB6000237B6100232C
:101B2C007B6000233B611E4B5B68FB60FB6803F032
:101B3C000C03042B02D0082B03D027E0194B3B617C
:101B4C0027E0FB689B0C03F00F03174AD35C7B6008
:101B5C00FB6803F48033002B10D0114B5B685B0CDB
:101B6C0003F00103114AD35CBB607B680D4A03FB95
:101B7C0002F2BB68B2FBF3F37B6104E07B680C4AB6
:101B8C0002FB03F37B617B693B6102E0054B3B612C
:101B9C0000BF3B6918461C37BD4680BC704700BF70
:101BAC000010024000127A00DC310008EC31000811
:101BBC0000093D0080B485B000AF78600A4B1B680B
:101BCC000A4AA2FB03235B0A7A6802FB03F3FB605D
:101BDC0000BFFB685A1EFA60002BF9D100BF00BF92
:101BEC001437BD4680BC704700000020D34D6210F6
:101BFC0080B582B000AF78607B68002B01D10123E7
:101C0C0041E07B6893F83D30DBB2002B06D17B685A
:101C1C00002283F83C207868FEF7BCFF7B68022228
:101C2C0083F83D207B681A687B680433194610469C
:101C3C0000F04CFE7B68012283F846207B68012271
:101C4C0083F83E207B68012283F83F207B680122C9
:101C5C0083F840207B68012283F841207B680122B5
:101C6C0083F842207B68012283F843207B680122A1
:101C7C0083F844207B68012283F845207B6801228D
:101C8C0083F83D20002318460837BD4680BD000070
:101C9C0080B485B000AF78607B6893F83D30DBB2E0
:101CAC00012B01D001233AE07B68022283F83D200E
:101CBC007B681B68DA687B681B6842F00102DA609B
:101CCC007B681B68184A93420ED07B681B68B3F183
:101CDC00804F09D07B681B68144A934204D07B6800
:101CEC001B68134A934211D17B681B689B6803F0F5
:101CFC000703FB60FB68062B10D07B681B681A6817
:101D0C007B681B6842F001021A6007E07B681B6865
:101D1C001A687B681B6842F001021A60002318469F
:101D2C001437BD4680BC7047002C014000040040B5
:101D3C000008004080B582B000AF78607B68002B53
:101D4C0001D1012341E07B6893F83D30DBB2002BDD
:101D5C0006D17B68002283F83C20786800F039F8C3
:101D6C007B68022283F83D207B681A687B68043309
:101D7C001946104600F0AAFD7B68012283F8462024
:101D8C007B68012283F83E207B68012283F83F2088
:101D9C007B68012283F840207B68012283F8412074
:101DAC007B68012283F842207B68012283F8432060
:101DBC007B68012283F844207B68012283F845204C
:101DCC007B68012283F83D20002318460837BD4666
:101DDC0080BD80B483B000AF786000BF0C37BD46C7
:101DEC0080BC704780B584B000AF786039603B68C8
:101DFC00002B09D17B6893F83E30DBB2012B14BF6A
:101E0C0001230023DBB222E03B68042B09D17B6861
:101E1C0093F83F30DBB2012B14BF01230023DBB25C
:101E2C0015E03B68082B09D17B6893F84030DBB296
:101E3C00012B14BF01230023DBB208E07B6893F86D
:101E4C004130DBB2012B14BF01230023DBB2002B8A
:101E5C0001D001235EE03B68002B04D17B68022299
:101E6C0083F83E2013E03B68042B04D17B680222EC
:101E7C0083F83F200BE03B68082B04D17B680222DF
:101E8C0083F8402003E07B68022283F841207B68C2
:101E9C001B6801223968184601F0B1F87B681B6891
:101EAC001E4A934207D17B681B685A6C7B681B687F
:101EBC0042F400425A647B681B68184A93420ED065
:101ECC007B681B68B3F1804F09D07B681B68144A90
:101EDC00934204D07B681B68124A934211D17B68F1
:101EEC001B689B6803F00703FB60FB68062B10D094
:101EFC007B681B681A687B681B6842F001021A60D9
:101F0C0007E07B681B681A687B681B6842F001025B
:101F1C001A60002318461037BD4680BD002C0140C6
:101F2C00000400400008004080B582B000AF78602B
:101F3C007B68002B01D1012341E07B6893F83D3095
:101F4C00DBB2002B06D17B68002283F83C2078683A
:101F5C00FEF7E0FD7B68022283F83D207B681A685F
:101F6C007B6804331946104600F0B0FC7B680122F4
:101F7C0083F846207B68012283F83E207B6801228F
:101F8C0083F83F207B68012283F840207B68012284
:101F9C0083F841207B68012283F842207B68012270
:101FAC0083F843207B68012283F844207B6801225C
:101FBC0083F845207B68012283F83D2000231846D6
:101FCC000837BD4680BD000080B584B000AF786096
:101FDC0039600023FB733B68002B04D17B6893F8BA
:101FEC003E30DBB213E03B68042B04D17B6893F8E2
:101FFC003F30DBB20BE03B68082B04D17B6893F8D5
:10200C004030DBB203E07B6893F84130DBB2BB734A
:10201C003B68002B04D17B6893F84230DBB213E0B1
:10202C003B68042B04D17B6893F84330DBB20BE0A4
:10203C003B68082B04D17B6893F84430DBB203E097
:10204C007B6893F84530DBB27B73BB7B012B02D1F1
:10205C007B7B012B01D00123B8E03B68002B04D122
:10206C007B68022283F83E2013E03B68042B04D1EA
:10207C007B68022283F83F200BE03B68082B04D1DD
:10208C007B68022283F8402003E07B68022283F8FD
:10209C0041203B68002B04D17B68022283F842204C
:1020AC0013E03B68042B04D17B68022283F84320A5
:1020BC000BE03B68082B04D17B68022283F8442098
:1020CC0003E07B68022283F845203B680C2B41D847
:1020DC0001A252F823F000BF192100086121000869
:1020EC0061210008612100082B21000861210008F2
:1020FC0061210008612100083D21000861210008D0
:10210C0061210008612100084F2100087B681B68D1
:10211C00DA687B681B6842F00202DA601DE07B68BB
:10212C001B68DA687B681B6842F00402DA6014E012
:10213C007B681B68DA687B681B6842F00802DA600F
:10214C000BE07B681B68DA687B681B6842F0100246
:10215C00DA6002E00123FB7300BFFB7B002B34D160
:10216C007B681B6801223968184600F048FF7B68C1
:10217C001B68184A93420ED07B681B68B3F1804FE2
:10218C0009D07B681B68144A934204D07B681B6897
:10219C00124A934211D17B681B689B6803F00703BA
:1021AC00BB60BB68062B10D07B681B681A687B6809
:1021BC001B6842F001021A6007E07B681B681A6812
:1021CC007B681B6842F001021A60FB7B18461037D3
:1021DC00BD4680BD002C01400004004000080040BA
:1021EC0080B584B000AF78607B681B68DB68FB60EF
:1021FC007B681B681B69BB60BB6803F00203002B88
:10220C0020D0FB6803F00203002B1BD07B681B68FB
:10221C006FF002021A617B6801221A777B681B68D7
:10222C009B6903F00303002B03D07868FDF79EFF36
:10223C0005E0786800F02EFB786800F034FB7B68D2
:10224C0000221A77BB6803F00403002B20D0FB6834
:10225C0003F00403002B1BD07B681B686FF0040297
:10226C001A617B6802221A777B681B689B6903F4EE
:10227C004073002B03D07868FDF778FF05E0786891
:10228C0000F008FB786800F00EFB7B6800221A77E0
:10229C00BB6803F00803002B20D0FB6803F0080395
:1022AC00002B1BD07B681B686FF008021A617B68DF
:1022BC0004221A777B681B68DB6903F00303002B8D
:1022CC0003D07868FDF752FF05E0786800F0E2FA79
:1022DC00786800F0E8FA7B6800221A77BB6803F094
:1022EC001003002B20D0FB6803F01003002B1BD035
:1022FC007B681B686FF010021A617B6808221A77E2
:10230C007B681B68DB6903F44073002B03D078688F
:10231C00FDF72CFF05E0786800F0BCFA786800F057
:10232C00C2FA7B6800221A77BB6803F00103002B0A
:10233C000CD0FB6803F00103002B07D07B681B68F3
:10234C006FF001021A617868FDF7FAFEBB6803F0C2
:10235C008003002B0CD0FB6803F08003002B07D00C
:10236C007B681B686FF080021A61786800F0D3FEFE
:10237C00BB6803F04003002B0CD0FB6803F0400358
:10238C00002B07D07B681B686FF040021A617868DD
:10239C0000F092FABB6803F02003002B0CD0FB6812
:1023AC0003F02003002B07D07B681B686FF0200222
:1023BC001A61786800F0A6FE00BF1037BD4680BDDC
:1023CC0080B586B000AFF860B9607A600023FB7509
:1023DC00FB6893F83C30012B01D1022388E0FB68A9
:1023EC00012283F83C207B68002B1BD1FB6818680A
:1023FC00BB681968BB685A68BB68DB6800F05CFC9A
:10240C00FB681B689A69FB681B6822F00C029A61D6
:10241C00FB681B689969BB689A68FB681B680A4370
:10242C009A6160E07B68042B1CD1FB681868BB6860
:10243C001968BB685A68BB68DB6800F0C5FCFB68B0
:10244C001B689A69FB681B6822F440629A61FB68FE
:10245C001B689969BB689B681A02FB681B680A4376
:10246C009A6140E07B68082B1BD1FB681868BB683D
:10247C001968BB685A68BB68DB6800F010FDFB6824
:10248C001B68DA69FB681B6822F00C02DA61FB68D6
:10249C001B68D969BB689A68FB681B680A43DA61D8
:1024AC0021E07B680C2B1CD1FB681868BB68196891
:1024BC00BB685A68BB68DB6800F02CFDFB681B68C6
:1024CC00DA69FB681B6822F44062DA61FB681B68FE
:1024DC00D969BB689B681A02FB681B680A43DA61FE
:1024EC0001E00123FB75FB68002283F83C20FB7D97
:1024FC0018461837BD4680BD80B586B000AFF86071
:10250C00B9607A600023FB75FB6893F83C30012BB3
:10251C0001D10223AEE0FB68012283F83C207B68EA
:10252C000C2B00F29F8001A252F823F06D250008BD
:10253C00712600087126000871260008AD250008D8
:10254C00712600087126000871260008EF25000886
:10255C007126000871260008712600082F26000835
:10256C00FB681B68B968184600F01EFAFB681B680C
:10257C009A69FB681B6842F008029A61FB681B6849
:10258C009A69FB681B6822F004029A61FB681B685D
:10259C009969BB681A69FB681B680A439A6164E015
:1025AC00FB681B68B968184600F064FAFB681B6886
:1025BC009A69FB681B6842F400629A61FB681B68AD
:1025CC009A69FB681B6822F480629A61FB681B683D
:1025DC009969BB681B691A02FB681B680A439A61FC
:1025EC0043E0FB681B68B968184600F0ADFAFB685D
:1025FC001B68DA69FB681B6842F00802DA61FB6849
:10260C001B68DA69FB681B6822F00402DA61FB685C
:10261C001B68D969BB681A69FB681B680A43DA61D5
:10262C0023E0FB681B68B968184600F0F7FAFB68F2
:10263C001B68DA69FB681B6842F40062DA61FB68AC
:10264C001B68DA69FB681B6822F48062DA61FB683C
:10265C001B68D969BB681B691A02FB681B680A43B3
:10266C00DA6102E00123FB7500BFFB68002283F8EE
:10267C003C20FB7D18461837BD4680BD80B584B024
:10268C0000AF786039600023FB737B6893F83C30B3
:10269C00012B01D10223B4E07B68012283F83C209A
:1026AC007B68022283F83D207B681B689B68BB60BB
:1026BC00BB6823F07703BB60BB6823F47F43BB602C
:1026CC007B681B68BA689A603B681B68B3F5005F4F
:1026DC003ED0B3F5005F00F28780B3F5805F00F069
:1026EC008680B3F5805F7FD8702B1AD0702B7BD887
:1026FC00602B50D0602B77D8502B3CD0502B73D8FC
:10270C00402B58D0402B6FD8302B64D0302B6BD84B
:10271C00202B60D0202B67D8002B5CD0102B5AD0EC
:10272C0062E07B6818683B6899683B685A683B684C
:10273C00DB6800F045FC7B681B689B68BB60BB6872
:10274C0043F07703BB607B681B68BA689A604FE004
:10275C007B6818683B6899683B685A683B68DB681B
:10276C0000F02EFC7B681B689A687B681B6842F43F
:10277C0080429A603CE07B6818683B6859683B680B
:10278C00DB681A4600F0F2FA7B681B685021184689
:10279C0000F0FCFB2CE07B6818683B6859683B68D0
:1027AC00DB681A4600F04CFB7B681B6860211846FE
:1027BC0000F0ECFB1CE07B6818683B6859683B68D0
:1027CC00DB681A4600F0D2FA7B681B684021184679
:1027DC0000F0DCFB0CE07B681A683B681B68194650
:1027EC00104600F0D3FB03E00123FB7300E000BFB5
:1027FC007B68012283F83D207B68002283F83C2013
:10280C00FB7B18461037BD4680BD000080B485B0F8
:10281C0000AF786039600023FB603B680C2B31D82B
:10282C0001A252F823F000BF692800089128000883
:10283C0091280008912800087328000891280008A6
:10284C0091280008912800087D280008912800088C
:10285C009128000891280008872800087B681B68CD
:10286C005B6BFB600FE07B681B689B6BFB600AE09B
:10287C007B681B68DB6BFB6005E07B681B681B6C73
:10288C00FB6000E000BFFB6818461437BD4680BCF7
:10289C00704700BF80B483B000AF786000BF0C37C6
:1028AC00BD4680BC704780B483B000AF786000BF79
:1028BC000C37BD4680BC704780B483B000AF7860E5
:1028CC0000BF0C37BD4680BC7047000080B485B09B
:1028DC0000AF786039607B681B68FB607B682F4AAF
:1028EC0093420BD07B68B3F1804F07D07B682C4AA6
:1028FC00934203D07B682B4A934208D1FB6823F0A8
:10290C007003FB603B685B68FA681343FB607B6891
:10291C00224A93420BD07B68B3F1804F07D07B687F
:10292C001F4A934203D07B681E4A934208D1FB682E
:10293C0023F44073FB603B68DB68FA681343FB606D
:10294C00FB6823F080023B685B691343FB607B6888
:10295C00FA681A603B689A687B68DA623B681A68A6
:10296C007B689A627B680D4A934203D13B681A6973
:10297C007B681A637B6801225A617B681B6903F0D0
:10298C000103002B05D07B681B6923F001027B68D7
:10299C001A6100BF1437BD4680BC7047002C014043
:1029AC00000400400008004080B487B000AF78609D
:1029BC0039607B681B6A7B617B681B6A23F00102B0
:1029CC007B681A627B685B683B617B689B69FB6018
:1029DC00FB6823F07003FB60FB6823F00303FB60D0
:1029EC003B681B68FA681343FB607B6923F00203A6
:1029FC007B613B689B687A6913437B617B681C4AEB
:102A0C0093420CD17B6923F008037B613B68DB6844
:102A1C007A6913437B617B6923F004037B617B68D8
:102A2C00134A934211D13B6923F480733B613B6998
:102A3C0023F400733B613B685B693A6913433B6168
:102A4C003B689B693A6913433B617B683A695A60FE
:102A5C007B68FA689A613B685A687B685A637B6842
:102A6C007A691A6200BF1C37BD4680BC704700BF34
:102A7C00002C014080B487B000AF786039607B686F
:102A8C001B6A7B617B681B6A23F010027B681A62ED
:102A9C007B685B683B617B689B69FB60FB6823F42C
:102AAC00E043FB60FB6823F44073FB603B681B68EE
:102ABC001B02FA681343FB607B6923F020037B61E4
:102ACC003B689B681B017A6913437B617B681D4AD9
:102ADC0093420DD17B6923F080037B613B68DB68FB
:102AEC001B017A6913437B617B6923F040037B6193
:102AFC007B68144A934213D13B6923F480633B6196
:102B0C003B6923F400633B613B685B699B003A695A
:102B1C0013433B613B689B699B003A6913433B61E0
:102B2C007B683A695A607B68FA689A613B685A68B4
:102B3C007B689A637B687A691A6200BF1C37BD4652
:102B4C0080BC7047002C014080B487B000AF786027
:102B5C0039607B681B6A7B617B681B6A23F480721B
:102B6C007B681A627B685B683B617B68DB69FB6036
:102B7C00FB6823F07003FB60FB6823F00303FB602E
:102B8C003B681B68FA681343FB607B6923F4007392
:102B9C007B613B689B681B027A6913437B617B6892
:102BAC001D4A93420DD17B6923F400637B613B6822
:102BBC00DB681B027A6913437B617B6923F48063B6
:102BCC007B617B68144A934213D13B6923F4805395
:102BDC003B613B6923F400533B613B685B691B0120
:102BEC003A6913433B613B689B691B013A69134388
:102BFC003B617B683A695A607B68FA68DA613B68CA
:102C0C005A687B68DA637B687A691A6200BF1C3782
:102C1C00BD4680BC704700BF002C014080B487B01B
:102C2C0000AF786039607B681B6A3B617B681B6A0C
:102C3C0023F480527B681A627B685B687B617B68DB
:102C4C00DB69FB60FB6823F4E043FB60FB6823F467
:102C5C004073FB603B681B681B02FA681343FB6004
:102C6C003B6923F400533B613B689B681B033A6947
:102C7C0013433B617B680F4A934209D17B6923F470
:102C8C0080437B613B685B699B017A6913437B6181
:102C9C007B687A695A607B68FA68DA613B685A68C3
:102CAC007B681A647B683A691A6200BF1C37BD46A0
:102CBC0080BC7047002C014080B487B000AFF86036
:102CCC00B9607A603B60FB681B6A3B61FB681B6AFE
:102CDC0023F00102FB681A62FB689B697B61FB684D
:102CEC001F4A93420BD0FB68B3F1804F07D0FB68AF
:102CFC001C4A934203D0FB681B4A934201D1012327
:102D0C0000E00023002B08D07B6923F003037B61D8
:102D1C007A697B6813437B6103E07B6943F00103B1
:102D2C007B617B6923F0F0037B613B681B01DBB2A9
:102D3C007A6913437B613B6923F00A033B61BB68EF
:102D4C0003F00A033A6913433B61FB687A699A61A1
:102D5C00FB683A691A6200BF1C37BD4680BC7047DD
:102D6C00002C0140000400400008004080B487B0F3
:102D7C0000AFF860B9607A60FB681B6A7B61FB6826
:102D8C001B6A23F00102FB681A62FB689B693B61BA
:102D9C003B6923F0F0033B617B681B013A691343E9
:102DAC003B617B6923F00A037B617A69BB6813433F
:102DBC007B61FB683A699A61FB687A691A6200BFA9
:102DCC001C37BD4680BC704780B487B000AFF8603C
:102DDC00B9607A603B60FB681B6A7B61FB681B6AAD
:102DEC0023F01002FB681A62FB689B693B613B692C
:102DFC0023F440733B617B681B023A6913433B61CC
:102E0C003B6923F470433B613B681B039BB23A69FB
:102E1C0013433B617B6923F0A0037B61BB681B01FF
:102E2C0003F0A0037A6913437B61FB683A699A61EA
:102E3C00FB687A691A6200BF1C37BD4680BC7047BC
:102E4C0080B487B000AFF860B9607A60FB681B6A29
:102E5C007B61FB681B6A23F01002FB681A62FB683B
:102E6C009B693B613B6923F470433B617B681B03AB
:102E7C003A6913433B617B6923F0A0037B61BB6818
:102E8C001B017A6913437B61FB683A699A61FB68A1
:102E9C007A691A6200BF1C37BD4680BC704780B48B
:102EAC0087B000AFF860B9607A603B60FB681B6A62
:102EBC007B61FB681B6A23F48072FB681A62FB68F7
:102ECC00DB693B613B6923F003033B613A697B6837
:102EDC0013433B613B6923F0F0033B613B681B01EF
:102EEC00DBB23A6913433B617B6923F400737B616A
:102EFC00BB681B0203F400737A6913437B61FB68A4
:102F0C003A69DA61FB687A691A6200BF1C37BD4600
:102F1C0080BC704780B487B000AFF860B9607A604D
:102F2C003B60FB681B6A7B61FB681B6A23F4805265
:102F3C00FB681A62FB68DB693B613B6923F44073F5
:102F4C003B617B681B023A6913433B613B6923F489
:102F5C0070433B613B681B039BB23A6913433B6173
:102F6C007B6923F400537B61BB681B0303F40053A0
:102F7C007A6913437B61FB683A69DA61FB687A69A9
:102F8C001A6200BF1C37BD4680BC704780B485B048
:102F9C0000AF786039607B689B68FB60FB6823F04E
:102FAC007003FB603A68FB68134343F00703FB6054
:102FBC007B68FA689A6000BF1437BD4680BC7047C6
:102FCC0080B487B000AFF860B9607A603B60FB6892
:102FDC009B687B617B6923F47F437B613B681A02AE
:102FEC007B681A43BB6813437A6913437B61FB68A4
:102FFC007A699A6000BF1C37BD4680BC704780B4AC
:10300C0087B000AFF860B9607A60BB6803F01F034B
:10301C00012202FA03F37B61FB681A6A7B69DB43CA
:10302C001A40FB681A62FB681A6ABB6803F01F033C
:10303C00796801FA03F31A43FB681A6200BF1C3764
:10304C00BD4680BC7047000080B485B000AF78608E
:10305C0039607B6893F83C30012B01D1022346E0A8
:10306C007B68012283F83C207B68022283F83D2098
:10307C007B681B685B68FB607B681B689B68BB603C
:10308C00FB6823F07003FB603B681B68FA68134312
:10309C00FB607B681B68FA685A607B681B68164A81
:1030AC0093420ED07B681B68B3F1804F09D07B68CC
:1030BC001B68124A934204D07B681B68104A9342E7
:1030CC000CD1BB6823F08003BB603B685B68BA68BB
:1030DC001343BB607B681B68BA689A607B680122EB
:1030EC0083F83D207B68002283F83C20002318469F
:1030FC001437BD4680BC7047002C014000040040D2
:10310C000008004080B483B000AF786000BF0C377B
:10311C00BD4680BC704780B483B000AF786000BF00
:10312C000C37BD4680BC704703460244934200D125
:10313C00704703F8011BF9E770B500260C4D0D4CD8
:10314C00641BA410A64209D100F01AF800260A4DFF
:10315C000A4C641BA410A64205D170BD55F8043B63
:10316C0098470136EEE755F8043B98470136F2E7ED
:10317C00F0310008F0310008F0310008F43100089B
:10318C00F8B500BFF8BC08BC9E467047F8B500BF48
:08319C00F8BC08BC9E46704718
:1031A4003F000000060000005B0000004F0000002C
:1031B400660000006D0000007D00000007000000B4
:1031C4007F0000006F00000000000000000000000D
:1031D4000102030406070809020304050607080997
:0C31E4000A0B0C0D0E0F10100102000071
:0431F00031010008A1
:0431F4000D010008C1
:0C31F80000127A0010000000010000002E
:0400000508000DDD05
:00000001FF
